:020000040800F2
:1000000000800120C50A0008410A0008490A0008CA
:10001000510A0008590A0008610A0008000000009F
:10002000000000000000000000000000690A000855
:10003000770A000800000000850A0008930A0008FB
:10004000150B0008150B0008150B0008150B000810
:10005000150B0008150B0008150B0008150B000800
:10006000150B0008150B0008150B0008150B0008F0
:10007000150B0008150B0008150B0008150B0008E0
:10008000150B0008150B0008150B000800000000F8
:10009000000000000000000000000000150B000838
:1000A000150B0008150B0008150B0008150B0008B0
:1000B000150B0008150B0008150B0008150B0008A0
:1000C000150B0008150B0008150B0008150B000890
:1000D000150B0008150B0008150B000800000000A8
:1000E000150B0008150B0008150B00080000000098
:1000F000000000000000000000000000150B0008D8
:1001000000000000150B0008150B0008150B000877
:1001100000000000000000000000000000000000DF
:10012000150B0008150B0008150B0008150B00082F
:10013000150B000800000000000000000000000097
:10014000000000000000000000000000150B000887
:10015000150B0008150B0008150B0008150B0008FF
:10016000150B0008150B000800000000000000003F
:10017000000000000000000000000000000000007F
:1001800000000000150B0008000000000000000047
:04019000150B000843
:1001940010B5054C237833B9044B13B10448AFF3BD
:1001A40000800123237010BD0C000020000000001B
:1001B400C029000808B5034B1BB103490348AFF33A
:1001C400008008BD0000000010000020C0290008C5
:1001D40053B94AB9002908BF00281CBF4FF0FF31AA
:1001E4004FF0FF3000F06AB9ADF1080C6DE904CEB0
:1001F40000F006F8DDF804E0DDE9022304B07047FE
:100204002DE9F047089D0C46002B4ED194468C45B1
:100214008646B2FA82F262D94AB1C2F12003914011
:1002240020FA03F30CFA02FC194300FA02FE4FEA27
:100234001C471FFA8CF6B1FBF7F44FEA1E4307FB89
:10024400141143EA014304FB06F199420AD91CEB59
:10025400030304F1FF3080F01281994240F20F81D0
:10026400023C6344591A1FFA8EF3B1FBF7F007FB03
:10027400101143EA014300FB06F69E420AD91CEB27
:10028400030300F1FF3180F0FC809E4240F2F980CC
:10029400634402389B1B40EA044000211DB1D34053
:1002A4000022C5E90032BDE8F0878B4205D90DB1C3
:1002B400C5E9000100210846F5E7B3FA83F10029F6
:1002C40046D1A34202D39042C0F0F080861A64EB78
:1002D40003030120002DE6D0C5E90063E3E7002A0B
:1002E40040F09080A1EB0C044FEA1C481FFA8CF7F5
:1002F4000121B4FBF8F64FEA1E4308FB164443EA17
:10030400044307FB06F0984208D91CEB030306F1EB
:10031400FF3402D2984200F2CD8026461C1A1FFAFE
:100324008EF3B4FBF8F008FB104443EA044300FBEB
:1003340007F79F4208D91CEB030300F1FF3402D2F4
:100344009F4200F2B0802046DB1B40EA0640A5E74E
:10035400C1F120068B4022FA06F71F4320FA06FC5F
:1003640004FA01F343EA0C03F44000FA01F8380CF0
:100374004FEA1349B4FBF0FE1FFA87FC00FB1E444E
:1003840049EA04440EFB0CF9A14502FA01F20AD928
:100394003C190EF1FF3A80F08480A14540F281803F
:1003A400AEF1020E3C44A4EB09041FFA83F9B4FB3A
:1003B400F0F300FB134449EA044403FB0CFCA4459A
:1003C40007D93C1903F1FF3067D2A44565D9023B34
:1003D4003C4443EA0E40A0FB0293A4EB0C049C4271
:1003E400CE469C4651D34ED055B1B8EB0E0364EBC8
:1003F4000C0404FA06F6CB401E43CC40C5E9006465
:10040400002150E7C2F1200320FA03F10CFA02FCA8
:1004140024FA03F394400C434FEA1C4800FA02FE0A
:100424001FFA8CF7B3FBF8F008FB1031230C43EAF6
:10043400014300FB07F1994208D91CEB030300F1C7
:10044400FF362CD299422AD9023863445B1AA4B2EB
:10045400B3FBF8F108FB113344EA034401FB07F34F
:10046400A34208D91CEB040401F1FF3613D2A342C2
:1004740011D902396444E41A41EA004139E70446D7
:10048400F0E6084606E7C845AED2B9EB020E63EBC8
:10049400070C0138A8E73146EDE7034699E73046F3
:1004A400D4E7D6467FE7634402384DE70646234641
:1004B40008460FE7023E634430E700BF704700BFC1
:1004C40080B584B000AF00F025FB00F027F800F001
:1004D40033F900F007F900F0DBF800F08BF80021A5
:1004E4000C4801F0F5FA0023FB60391D4FF47A73D0
:1004F4000522094801F06EFE3A1DFB6813441B787F
:10050400B42BF2D83A1DFB6813441B78184600F04C
:1005140081F9EAE7280000207000002080B594B03B
:1005240000AF07F1200330220021184602F01AFA26
:1005340007F10C0300221A605A609A60DA601A61AB
:100544000023BB60294B1B6C284A43F0805313647F
:10055400264B1B6C03F08053BB60BB6800237B609D
:10056400234B1B6823F44043214A43F400431360A4
:100574001F4B1B6803F440437B607B6802233B6290
:100584000123FB6210233B630223BB630023FB6351
:1005940010233B644FF4A8737B640423BB640723D8
:1005A400FB6407F12003184600F0AAFD0346002B64
:1005B40001D000F051F90F23FB6002233B610023BB
:1005C4007B614FF48053BB610023FB6107F10C0393
:1005D4000221184601F00CF80346002B01D000F06C
:1005E4003BF900BF5037BD4680BD00BF0038024014
:1005F4000070004080B586B000AF07F10803002208
:100604001A605A609A60DA603B4600221A605A60A7
:100614001D4B1E4A1A601C4B4F225A601A4B002273
:100624009A60194B44F61F62DA60174B00221A6174
:10063400154B00229A61144801F0FAF90346002B85
:1006440001D000F009F94FF48053BB6007F10803AF
:1006540019460D4801F0ECFA0346002B01D000F0D6
:10066400FBF800233B6000237B603B4619460648A9
:1006740001F0F2FC0346002B01D000F0EDF800BFBE
:100684001837BD4680BD00BF28000020000400408C
:1006940080B500AF114B124A1A60104B4FF4E1328F
:1006A4005A600E4B00229A600C4B0022DA600B4B0E
:1006B40000221A61094B0C225A61084B00229A61EC
:1006C400064B0022DA61054801F034FD0346002B95
:1006D40001D000F0C1F800BF80BD00BF7000002051
:1006E4000010014080B500AF114B124A1A60104B44
:1006F4004FF4E1325A600E4B00229A600C4B0022F8
:10070400DA600B4B00221A61094B0C225A61084B28
:1007140000229A61064B0022DA61054801F00AFDC5
:100724000346002B01D000F097F800BF80BD00BF46
:10073400B80000200044004080B58AB000AF07F143
:10074400140300221A605A609A60DA601A61002366
:100754003B612D4B1B6B2C4A43F0040313632A4B60
:100764001B6B03F004033B613B690023FB60264BD6
:100774001B6B254A43F080031363234B1B6B03F06D
:100784008003FB60FB680023BB601F4B1B6B1E4A8E
:1007940043F0010313631C4B1B6B03F00103BB60A9
:1007A400BB6800237B60184B1B6B174A43F00203A2
:1007B4001363154B1B6B03F002037B607B68002201
:1007C4002021124800F082FC4FF400537B614FF467
:1007D4000413BB610023FB6107F1140319460C48A1
:1007E40000F0F0FA20237B610123BB610023FB614D
:1007F40000233B6207F114031946044800F0E2FAAF
:1008040000BF2837BD4680BD0038024000000240CA
:100814000008024080B485B000AF78607B684FF474
:100824007A7202FB03F30A4A82FB03121A44D211BE
:10083400DB17D31A03F57A73FB60064B1B68FA685F
:100844005A6300BF1437BD465DF8047B704700BF90
:10085400B7600BB62800002080B400AF72B600BFAA
:1008640000BFFDE780B582B000AF00237B60104B72
:100874005B6C0F4A43F4804353640D4B5B6C03F48D
:1008840080437B607B6800233B60094B1B6C084AF8
:1008940043F080531364064B1B6C03F080533B609E
:1008A4003B68072000F05AFA00BF0837BD4680BDF8
:1008B4000038024080B58AB000AF786007F11403B5
:1008C40000221A605A609A60DA601A617B681B68B9
:1008D400194A93422BD100233B61184B1B6C174AD6
:1008E40043F002031364154B1B6C03F002033B61DA
:1008F4003B690023FB60114B1B6B104A43F001035F
:1009040013630E4B1B6B03F00103FB60FB68402376
:100914007B610223BB610023FB6100233B62022352
:100924007B6207F114031946054800F04BFA00BF37
:100934002837BD4680BD00BF000400400038024097
:100944000000024080B58CB000AF786007F11C0352
:1009540000221A605A609A60DA601A617B681B6828
:10096400324A93422DD10023BB61314B5B6C304A38
:1009740043F0100353642E4B5B6C03F01003BB6114
:10098400BB6900237B612A4B1B6B294A43F001039B
:100994001363274B1B6B03F001037B617B694FF4EB
:1009A400C063FB6102233B6200237B620323BB62BF
:1009B4000723FB6207F11C0319461E4800F002FAE4
:1009C40030E07B681B681C4A93422BD100233B61B7
:1009D400174B1B6C164A43F400331364144B1B6C03
:1009E40003F400333B613B690023FB60104B1B6B3A
:1009F4000F4A43F0010313630D4B1B6B03F0010318
:100A0400FB60FB680C23FB6102233B6200237B62D7
:100A14000023BB620723FB6207F11C031946054848
:100A240000F0D0F900BF3037BD4680BD0010014052
:100A340000380240000002400044004080B400AF8F
:100A440000BFFDE780B400AF00BFFDE780B400AF96
:100A540000BFFDE780B400AF00BFFDE780B400AF86
:100A640000BFFDE780B400AF00BFBD465DF8047B66
:100A7400704780B400AF00BFBD465DF8047B70478B
:100A840080B400AF00BFBD465DF8047B704780B5FD
:100A940000AF00F091F800BF80BD000080B400AF4B
:100AA400064BD3F88830054A43F47003C2F8883003
:100AB40000BFBD465DF8047B704700BF00ED00E059
:100AC400DFF834D0FFF7EAFF0C480D490D4A002344
:100AD40002E0D458C4500433C4188C42F9D30A4AEF
:100AE4000A4C002301E013600432A242FBD301F05C
:100AF40041FFFFF7E5FC7047008001200000002063
:100B04000C000020002A00080C0000200401002032
:100B1400FEE7000080B500AF0E4B1B680D4A43F49E
:100B2400007313600B4B1B680A4A43F48063136021
:100B3400084B1B68074A43F480731360032000F0DA
:100B44000DF9002000F008F8FFF78CFE002318468A
:100B540080BD00BF003C024080B582B000AF786029
:100B6400124B1A68124B1B7819464FF47A73B3FB75
:100B7400F1F3B2FBF3F3184600F017F90346002B28
:100B840001D001230EE07B680F2B0AD8002279687C
:100B94004FF0FF3000F0EDF8064A7B681360002345
:100BA40000E0012318460837BD4680BD0000002040
:100BB400080000200400002080B400AF064B1B781E
:100BC4001A46064B1B681344044A136000BFBD4613
:100BD4005DF8047B704700BF08000020000100207E
:100BE40080B400AF034B1B681846BD465DF8047B18
:100BF400704700BF0001002080B485B000AF78606A
:100C04007B6803F00703FB600C4BDB68BB60BA68CE
:100C14004FF6FF031340BB60FB681A02BB68134323
:100C240043F0BF6343F40033BB60044ABB68D36042
:100C340000BF1437BD465DF8047B704700ED00E04B
:100C440080B400AF044BDB681B0A03F007031846AB
:100C5400BD465DF8047B704700ED00E080B483B0CE
:100C640000AF03463960FB7197F90730002B0ADBAC
:100C74003B68DAB20C4997F907301201D2B20B443F
:100C840083F800230AE03B68DAB20849FB7903F0F1
:100C94000F03043B1201D2B20B441A7600BF0C3787
:100CA400BD465DF8047B704700E100E000ED00E024
:100CB40080B489B000AFF860B9607A60FB6803F073
:100CC4000703FB61FB69C3F10703042B28BF04235B
:100CD400BB61FB690433062B02D9FB69033B00E0CB
:100CE40000237B614FF0FF32BB6902FA03F3DA435E
:100CF400BB681A407B699A404FF0FF317B6901FA67
:100D040003F3D9437B680B40134318462437BD468D
:100D14005DF8047B7047000080B582B000AF786056
:100D24007B68013BB3F1807F01D301230FE00A4AC2
:100D34007B68013B53600F214FF0FF30FFF78EFFBC
:100D4400054B00229A60044B07221A6000231846C0
:100D54000837BD4680BD00BF10E000E080B582B01A
:100D640000AF78607868FFF747FF00BF0837BD46DB
:100D740080BD80B586B000AF0346B9607A60FB736E
:100D840000237B61FFF75CFF78617A68B968786952
:100D9400FFF78EFF024697F90F3011461846FFF70A
:100DA4005DFF00BF1837BD4680BD80B582B000AF7F
:100DB40078607868FFF7B0FF034618460837BD46E9
:100DC40080BD000080B489B000AF78603960002332
:100DD4007B6100233B610023BB610023FB6159E17C
:100DE4000122FB6902FA03F37B613B681B687A69A1
:100DF40013403B613A697B699A4240F048813B6801
:100E04005B6803F00303012B05D03B685B6803F0C8
:100E14000303022B30D17B689B68BB61FB695B00D9
:100E2400032202FA03F3DB43BA691340BB613B6854
:100E3400DA68FB695B0002FA03F3BA691343BB6126
:100E44007B68BA699A607B685B68BB610122FB6955
:100E540002FA03F3DB43BA691340BB613B685B6886
:100E64001B0903F00102FB6902FA03F3BA69134395
:100E7400BB617B68BA695A603B685B6803F0030333
:100E8400032B17D07B68DB68BB61FB695B00032223
:100E940002FA03F3DB43BA691340BB613B689A6807
:100EA400FB695B0002FA03F3BA691343BB617B6815
:100EB400BA69DA603B685B6803F00303022B23D151
:100EC400FB69DA087B68083253F82230BB61FB699E
:100ED40003F007039B000F2202FA03F3DB43BA6912
:100EE4001340BB613B681A69FB6903F007039B006D
:100EF40002FA03F3BA691343BB61FB69DA087B683E
:100F04000832B96943F822107B681B68BB61FB692E
:100F14005B00032202FA03F3DB43BA691340BB61AB
:100F24003B685B6803F00302FB695B0002FA03F3AE
:100F3400BA691343BB617B68BA691A603B685B6832
:100F440003F44033002B00F0A2800023FB60574BD6
:100F54005B6C564A43F480435364544B5B6C03F418
:100F64008043FB60FB68524AFB699B08023352F8DA
:100F74002330BB61FB6903F003039B000F2202FAD9
:100F840003F3DB43BA691340BB617B68494A93426C
:100F940019D07B68484A934213D07B68474A9342EE
:100FA4000DD07B68464A934207D07B68454A9342FA
:100FB40001D1042308E0072306E0032304E002230D
:100FC40002E0012300E00023FA6902F00302920028
:100FD4009340BA691343BB613549FB699B080233EB
:100FE400BA6941F82320384B9B68BB613B69DB43FA
:100FF400BA691340BB613B685B6803F48013002B40
:1010040003D0BA693B691343BB612F4ABB69936040
:101014002D4BDB68BB613B69DB43BA691340BB61A1
:101024003B685B6803F40013002B03D0BA693B6987
:101034001343BB61244ABB69D360234B5B68BB6128
:101044003B69DB43BA691340BB613B685B6803F4EB
:101054000033002B03D0BA693B691343BB611A4ABE
:10106400BB695360184B1B68BB613B69DB43BA69BE
:101074001340BB613B685B6803F48033002B03D0EF
:10108400BA693B691343BB610F4ABB691360FB69CF
:101094000133FB61FB690F2B7FF6A2AE00BF00BFDB
:1010A4002437BD465DF8047B704700BF003802401A
:1010B40000380140000002400004024000080240E1
:1010C400000C024000100240003C014080B483B098
:1010D40000AF78600B467B8013467B707B78002BD7
:1010E40003D07A887B689A6103E07B881A047B6862
:1010F4009A6100BF0C37BD465DF8047B7047000061
:1011040080B586B000AF78607B68002B01D10123E5
:1011140067E27B681B6803F00103002B75D0884BE2
:101124009B6803F00C03042B0CD0854B9B6803F0E5
:101134000C03082B12D1824B5B6803F48003B3F5D4
:10114400800F0BD17E4B1B6803F40033002B5BD064
:101154007B685B68002B57D1012342E27B685B68A4
:10116400B3F5803F06D1764B1B68754A43F4803350
:1011740013601DE07B685B68B3F5A02F0CD1704B46
:101184001B686F4A43F4802313606D4B1B686C4AE1
:1011940043F4803313600BE0694B1B68684A23F403
:1011A40080331360664B1B68654A23F48023136005
:1011B4007B685B68002B13D0FFF712FD386108E0F1
:1011C400FFF70EFD02463B69D31A642B01D90323B2
:1011D40007E25B4B1B6803F40033002BF0D014E0F0
:1011E400FFF7FEFC386108E0FFF7FAFC02463B69B2
:1011F400D31A642B01D90323F3E1514B1B6803F485
:101204000033002BF0D100E000BF7B681B6803F0C3
:101214000203002B63D04A4B9B6803F00C03002BA2
:101224000BD0474B9B6803F00C03082B1CD1444B99
:101234005B6803F48003002B16D1414B1B6803F059
:101244000203002B05D07B68DB68012B01D001234E
:10125400C7E13B4B1B6823F0F8027B681B69DB008A
:10126400374913430B603AE07B68DB68002B20D0DE
:10127400344B01221A60FFF7B3FC386108E0FFF732
:10128400AFFC02463B69D31A022B01D90323A8E120
:101294002B4B1B6803F00203002BF0D0284B1B6878
:1012A40023F0F8027B681B69DB00254913430B60BC
:1012B40015E0244B00221A60FFF792FC386108E025
:1012C400FFF78EFC02463B69D31A022B01D9032394
:1012D40087E11B4B1B6803F00203002BF0D17B68F2
:1012E4001B6803F00803002B36D07B685B69002B76
:1012F40016D0154B01221A60FFF772FC386108E022
:10130400FFF76EFC02463B69D31A022B01D9032373
:1013140067E10B4B5B6F03F00203002BF0D01BE083
:10132400094B00221A60FFF75BFC38610EE0FFF7FF
:1013340057FC02463B69D31A022B07D9032350E119
:101344000038024000004742800E4742884B5B6FE2
:1013540003F00203002BEAD17B681B6803F004034B
:10136400002B00F097800023FB75814B1B6C03F06E
:101374008053002B0FD10023BB607D4B1B6C7C4A38
:1013840043F0805313647A4B1B6C03F08053BB60AF
:10139400BB680123FB75774B1B6803F48073002B38
:1013A40018D1744B1B68734A43F480731360FFF7BE
:1013B40017FC386108E0FFF713FC02463B69D31AB7
:1013C400022B01D903230CE16A4B1B6803F48073DD
:1013D400002BF0D07B689B68012B06D1644B1B6FFC
:1013E400634A43F0010313671CE07B689B68052B89
:1013F4000CD15F4B1B6F5E4A43F0040313675C4BD5
:101404001B6F5B4A43F0010313670BE0584B1B6FE0
:10141400574A23F001031367554B1B6F544A23F0BB
:10142400040313677B689B68002B15D0FFF7D8FB78
:1014340038610AE0FFF7D4FB02463B69D31A41F254
:101444008832934201D90323CBE0494B1B6F03F04D
:101454000203002BEED014E0FFF7C2FB38610AE070
:10146400FFF7BEFB02463B69D31A41F2883293422E
:1014740001D90323B5E03E4B1B6F03F00203002B9D
:10148400EED1FB7D012B05D1394B1B6C384A23F07F
:10149400805313647B689B69002B00F0A180344B5C
:1014A4009B6803F00C03082B5CD07B689B69022BC0
:1014B40041D1314B00221A60FFF792FB386108E0FA
:1014C400FFF78EFB02463B69D31A022B01D9032393
:1014D40087E0274B1B6803F00073002BF0D17B6877
:1014E400DA697B681B6A1A437B685B6A9B011A434F
:1014F4007B689B6A5B08013B1B041A437B68DB6ABD
:101504001B061B4913434B601B4B01221A60FFF758
:1015140067FB386108E0FFF763FB02463B69D31AB7
:10152400022B01D903235CE0114B1B6803F0007309
:10153400002BF0D054E0104B00221A60FFF750FB50
:10154400386108E0FFF74CFB02463B69D31A022BD3
:1015540001D9032345E0064B1B6803F00073002BFD
:10156400F0D13DE07B689B69012B07D1012338E072
:101574000038024000700040600047421B4B5B682B
:10158400FB607B689B69012B28D0FB6803F4800215
:101594007B68DB699A4221D1FB6803F03F027B68D8
:1015A4001B6A9A421AD1FA6847F6C07313407A68E4
:1015B400526A9201934211D1FB6803F440327B6872
:1015C4009B6A5B08013B1B049A4207D1FB6803F04A
:1015D40070627B68DB6A1B069A4201D0012300E03B
:1015E400002318461837BD4680BD00BF00380240AE
:1015F40080B584B000AF786039607B68002B01D17E
:101604000123CCE0684B1B6803F007033A689A4255
:101614000CD9654B3A68D2B21A70634B1B6803F05D
:1016240007033A689A4201D00123B8E07B681B683B
:1016340003F00203002B20D07B681B6803F0040333
:10164400002B05D0594B9B68584A43F4E0539360F0
:101654007B681B6803F00803002B05D0534B9B6881
:10166400524A43F460439360504B9B6823F0F0026A
:101674007B689B684D4913438B607B681B6803F050
:101684000103002B44D07B685B68012B07D1474BD7
:101694001B6803F40033002B19D101237FE07B681E
:1016A4005B68022B03D07B685B68032B07D13F4B3D
:1016B4001B6803F00073002B09D101236FE03B4B3F
:1016C4001B6803F00203002B01D1012367E0374BB1
:1016D4009B6823F003027B685B68344913438B6087
:1016E400FFF77EFAF8600AE0FFF77AFA0246FB6831
:1016F400D31A41F28832934201D903234FE02B4B92
:101704009B6803F00C027B685B689B009A42EBD1F8
:10171400254B1B6803F007033A689A420CD2224B0C
:101724003A68D2B21A70204B1B6803F007033A6878
:101734009A4201D0012332E07B681B6803F0040362
:10174400002B08D0194B9B6823F4E0527B68DB68BC
:10175400164913438B607B681B6803F00803002B56
:1017640009D0124B9B6823F460427B681B69DB0041
:101774000E4913438B6000F021F802460B4B9B6823
:101784001B0903F00F030A49CB5C22FA03F3094A4D
:101794001360094B1B681846FFF7DEF9002318464F
:1017A4001037BD4680BD00BF003C024000380240F7
:1017B400D829000800000020040000202DE9B04FC3
:1017C40094B000AF00237B640023FB6400233B64DC
:1017D4000023BB64794B9B6803F00C03082B0DD0EA
:1017E400082B00F2E180002B02D0042B03D0DBE0B5
:1017F400734BBB64DBE0734BBB64D8E06F4B5B683B
:1018040003F03F037B646D4B5B6803F48003002BA0
:1018140063D06A4B5B689B090022BB63FA63BB6BB2
:10182400C3F308033B6300237B63D7E90C452246DB
:101834002B464FF000004FF00001590141EAD261FC
:10184400500102460B462146511A3961294663EB81
:1018540001037B614FF000024FF00003D7E904ABB2
:1018640059468B01514643EA916351468A015146D8
:10187400B2EB0108594663EB01094FF000024FF047
:1018840000034FEAC90343EA58734FEAC80290467B
:101894009946234618EB0303BB602B4649EB03032D
:1018A400FB604FF000024FF00003D7E902452946E0
:1018B4004B02214643EAD15321464A0210461946B7
:1018C4007B6C0022BB62FA62D7E90A23FEF780FC34
:1018D40002460B461346FB6458E0384B5B689B0991
:1018E400002218461146C0F308033B6200237B62C2
:1018F400D7E9088942464B464FF000004FF00001FB
:10190400590141EAD261500102460B464146B2EB0D
:10191400010A494663EB010B4FF000024FF000034C
:101924004FEA8B1343EA9A634FEA8A12B2EB0A0432
:1019340063EB0B054FF000024FF00003EB0043EAAA
:101944005473E20014461D464346E3183B604B467D
:1019540045EB03037B604FF000024FF00003D7E92F
:10196400004529468B02214643EA915321468A02C7
:10197400104619467B6C0022BB61FA61D7E9062345
:10198400FEF726FC02460B461346FB640B4B5B68D2
:101994001B0C03F0030301335B003B64FA6C3B6CE8
:1019A400B2FBF3F3BB6402E0054BBB6400BFBB6C4A
:1019B40018465037BD46BDE8B08F00BF003802401E
:1019C4000024F40000127A0080B400AF034B1B68BB
:1019D4001846BD465DF8047B704700BF0000002038
:1019E40080B500AFFFF7F0FF0246054B9B689B0AEA
:1019F40003F007030349CB5C22FA03F3184680BDC6
:101A040000380240E829000880B500AFFFF7DCFF8A
:101A14000246054B9B685B0B03F007030349CB5C51
:101A240022FA03F3184680BD00380240E829000872
:101A340080B582B000AF78607B68002B01D10123B0
:101A440041E07B6893F83D30DBB2002B06D17B6824
:101A5400002283F83C207868FEF72CFF7B68022282
:101A640083F83D207B681A687B6804331946104666
:101A740000F0A6F97B68012283F846207B680122E6
:101A840083F83E207B68012283F83F207B68012293
:101A940083F840207B68012283F841207B6801227F
:101AA40083F842207B68012283F843207B6801226B
:101AB40083F844207B68012283F845207B68012257
:101AC40083F83D20002318460837BD4680BD00003A
:101AD40080B584B000AF786039603B68002B09D1D1
:101AE4007B6893F83E30DBB2012B14BF0123002343
:101AF400DBB222E03B68042B09D17B6893F83F30CA
:101B0400DBB2012B14BF01230023DBB215E03B68D9
:101B1400082B09D17B6893F84030DBB2012B14BF4A
:101B240001230023DBB208E07B6893F84130DBB289
:101B3400012B14BF01230023DBB2002B01D00123AE
:101B440068E03B68002B04D17B68022283F83E20C6
:101B540013E03B68042B04D17B68022283F83F2006
:101B64000BE03B68082B04D17B68022283F84020F9
:101B740003E07B68022283F841207B681B68012212
:101B84003968184600F042FA7B681B68234A93427E
:101B940007D17B681B685A6C7B681B6842F400425F
:101BA4005A647B681B681D4A934218D07B681B6883
:101BB400B3F1804F13D07B681B68194A93420ED04F
:101BC4007B681B68174A934209D07B681B68164AD6
:101BD400934204D07B681B68144A934211D17B68FA
:101BE4001B689B6803F00703FB60FB68062B10D09F
:101BF4007B681B681A687B681B6842F001021A60E4
:101C040007E07B681B681A687B681B6842F0010266
:101C14001A60002318461037BD4680BD00000140FD
:101C24000004004000080040000C00400040014057
:101C340080B584B000AF786039600023FB737B68A3
:101C440093F83C30012B01D10223B4E07B680122DC
:101C540083F83C207B68022283F83D207B681B6864
:101C64009B68BB60BB6823F07703BB60BB6823F44D
:101C74007F43BB607B681B68BA689A603B681B68DB
:101C8400B3F5005F3ED0B3F5005F00F28780B3F593
:101C9400805F00F08680B3F5805F7FD8702B1AD008
:101CA400702B7BD8602B50D0602B77D8502B3CD036
:101CB400502B73D8402B58D0402B6FD8302B64D086
:101CC400302B6BD8202B60D0202B67D8002B5CD016
:101CD400102B5AD062E07B6818683B6899683B68AF
:101CE4005A683B68DB6800F071F97B681B689B6885
:101CF400BB60BB6843F07703BB607B681B68BA6852
:101D04009A604FE07B6818683B6899683B685A683A
:101D14003B68DB6800F05AF97B681B689A687B684B
:101D24001B6842F480429A603CE07B6818683B6818
:101D340059683B68DB681A4600F0CEF87B681B687C
:101D44005021184600F027F92CE07B6818683B689E
:101D540059683B68DB681A4600F0EDF87B681B683D
:101D64006021184600F017F91CE07B6818683B688E
:101D740059683B68DB681A4600F0AEF87B681B685C
:101D84004021184600F007F90CE07B681A683B68AC
:101D94001B681946104600F0FEF803E00123FB73AC
:101DA40000E000BF7B68012283F83D207B680022AD
:101DB40083F83C20FB7B18461037BD4680BD0000ED
:101DC40080B485B000AF786039607B681B68FB60C5
:101DD4007B683A4A93420FD07B68B3F1804F0BD0B3
:101DE4007B68374A934207D07B68364A934203D0D4
:101DF4007B68354A934208D1FB6823F07003FB608B
:101E04003B685B68FA681343FB607B682B4A934228
:101E14001BD07B68B3F1804F17D07B68284A93426C
:101E240013D07B68274A93420FD07B68264A93429B
:101E34000BD07B68254A934207D07B68244A93429F
:101E440003D07B68234A934208D1FB6823F4407390
:101E5400FB603B68DB68FA681343FB60FB6823F0B4
:101E640080023B685B691343FB607B68FA681A6015
:101E74003B689A687B68DA623B681A687B689A6296
:101E84007B680E4A934203D13B681A697B681A63E4
:101E94007B6801225A617B681B6903F00103012BF3
:101EA40005D17B681B6923F001027B681A6100BFBE
:101EB4001437BD465DF8047B704700BF0000014045
:101EC4000004004000080040000C004000400140B5
:101ED400004401400048014080B487B000AFF8607E
:101EE400B9607A60FB681B6A7B61FB681B6A23F03C
:101EF4000102FB681A62FB689B693B613B6923F042
:101F0400F0033B617B681B013A6913433B617B69C6
:101F140023F00A037B617A69BB6813437B61FB6826
:101F24003A699A61FB687A691A6200BF1C37BD4638
:101F34005DF8047B704780B487B000AFF860B96087
:101F44007A60FB681B6A7B61FB681B6A23F01002E2
:101F5400FB681A62FB689B693B613B6923F470432D
:101F64003B617B681B033A6913433B617B6923F044
:101F7400A0037B61BB681B017A6913437B61FB6827
:101F84003A699A61FB687A691A6200BF1C37BD46D8
:101F94005DF8047B704780B485B000AF7860396029
:101FA4007B689B68FB60FB6823F07003FB603A6806
:101FB400FB68134343F00703FB607B68FA689A608D
:101FC40000BF1437BD465DF8047B704780B487B00A
:101FD40000AFF860B9607A603B60FB689B687B6126
:101FE4007B6923F47F437B613B681A027B681A4355
:101FF400BB6813437A6913437B61FB687A699A600F
:1020040000BF1C37BD465DF8047B704780B487B0C1
:1020140000AFF860B9607A60BB6803F01F03012267
:1020240002FA03F37B61FB681A6A7B69DB431A409B
:10203400FB681A62FB681A6ABB6803F01F037968BD
:1020440001FA03F31A43FB681A6200BF1C37BD464A
:102054005DF8047B7047000080B485B000AF786001
:1020640039607B6893F83C30012B01D1022350E0A6
:102074007B68012283F83C207B68022283F83D20A0
:102084007B681B685B68FB607B681B689B68BB6044
:10209400FB6823F07003FB603B681B68FA6813431A
:1020A400FB607B681B68FA685A607B681B681C4A83
:1020B400934218D07B681B68B3F1804F13D07B68C0
:1020C4001B68184A93420ED07B681B68164A9342D9
:1020D40009D07B681B68154A934204D07B681B684F
:1020E400134A93420CD1BB6823F08003BB603B6866
:1020F4005B68BA681343BB607B681B68BA689A6004
:102104007B68012283F83D207B68002283F83C2011
:10211400002318461437BD465DF8047B704700BFA2
:10212400000001400004004000080040000C004092
:102134000040014080B582B000AF78607B68002B1E
:1021440001D1012342E07B6893F84130DBB2002BDC
:1021540006D17B68002283F840207868FEF7F2FB02
:102164007B68242283F841207B681B68DA687B68DB
:102174001B6822F40052DA60786800F07FF97B680B
:102184001B681A697B681B6822F490421A617B6899
:102194001B685A697B681B6822F02A025A617B68B3
:1021A4001B68DA687B681B6842F40052DA607B685B
:1021B40000225A647B68202283F841207B68202215
:1021C40083F842207B6800225A63002318460837AC
:1021D400BD4680BD80B58AB002AFF860B9603B608F
:1021E4001346FB8000237B61FB6893F84230DBB22B
:1021F400202B40F08180BB68002B02D0FB88002B91
:1022040001D1012379E0FB6800225A64FB68222291
:1022140083F84220FB6800221A63FEF7E1FC786130
:10222400FB68FA889A85FB68FA88DA85FB689B68FC
:10223400B3F5805F08D1FB681B69002B04D1002330
:10224400FB61BB68BB6103E0BB68FB610023BB614E
:1022540047E03B6800937B6900222021F86800F086
:1022640050F80346002B05D0FB68202283F8422057
:10227400032342E0FB69002B0CD1FB681B685B68FD
:102284009BB2C3F308039AB2BB691A80BB690233D9
:10229400BB611FE0FB689B68B3F5805F07D0FB68F8
:1022A4009B68002B0AD1FB681B69002B06D1FB68D5
:1022B4001B685B68DAB2FB691A7008E0FB681B688C
:1022C4005B68DBB203F07F03DAB2FB691A70FB6967
:1022D4000133FB61FB68DB8D9BB2013B9AB2FB6867
:1022E400DA85FB68DB8D9BB2002BB2D1FB68202220
:1022F40083F84220002300E0022318462037BD461D
:1023040080BD80B586B000AFF860B9603B6013460D
:10231400FB713BE03B6AB3F1FF3F37D0FEF760FC53
:1023240002463B68D31A3A6A9A4202D33B6A002BAC
:1023340001D103233AE0FB681B68DB6803F0040364
:10234400002B23D0BB68802B20D0BB68402B1DD032
:10235400FB681B681B6803F00803082B16D10023D5
:102364007B61FB681B681B687B61FB681B685B689F
:102374007B617B69F86800F01DF8FB6808225A64E9
:10238400FB68002283F8402001230FE0FB681B68F0
:102394001A68BB681340BA689A420CBF0123002331
:1023A400DBB21A46FB799A42B4D000231846183798
:1023B400BD4680BD80B495B000AF78607B681B6873
:1023C4000C337B637B6B53E8003F3B633B6B23F431
:1023D4009073FB647B681B680C33FA6C3A64FB6390
:1023E400F96B3A6C41E80023BB63BB6B002BE5D16E
:1023F4007B681B6814333B623B6A53E8003FFB6114
:10240400FB6923F00103BB647B681B681433BA6C5B
:10241400FA62BB62B96AFA6A41E800237B627B6AAA
:10242400002BE5D17B681B6B012B19D17B681B68E2
:102434000C33FB60FB6853E8003FBB60BB6823F0D0
:1024440010037B647B681B680C337A6CBA617B6114
:102454007969BA6941E800233B613B69002BE5D106
:102464007B68202283F842207B6800221A6300BF25
:102474005437BD465DF8047B704700002DE9B04F2A
:10248400C0B000AFC7F8F400D7F8F4301B681B697C
:1024940023F44050D7F8F430D968D7F8F4301A68E8
:1024A40040EA01031361D7F8F4309A68D7F8F4309E
:1024B4001B691A43D7F8F4305B691A43D7F8F43030
:1024C400DB691343C7F8F830D7F8F4301B68DB68CE
:1024D40023F4164121F00C01D7F8F4301A68D7F828
:1024E400F8300B43D360D7F8F4301B685B6923F4EE
:1024F4004070D7F8F4309969D7F8F4301A6840EA94
:1025040001035361D7F8F4301A688F4B9A4205D00F
:10251400D7F8F4301A688D4B9A4204D1FFF774FA55
:10252400C7F8FC0003E0FFF75BFAC7F8FC00D7F834
:10253400F430DB69B3F5004F40F00C81D7F8FC3080
:102544000022C7F8E830C7F8EC20D7E93A4522461C
:102554002B469118B9655B41FB65D7E916232146E3
:1025640012EB0108294643EB01094FF000024FF03A
:1025740000034FEAC90343EA58734FEAC80290467E
:102584009946234618EB0303C7F8E0302B4649EB82
:102594000303C7F8E430D7F8F4305B680022C7F8C7
:1025A400D830C7F8DC20D7E936120B46DB183B6578
:1025B400134642EB03037B65D7E91423D7E93801BB
:1025C400FDF706FE02460B46614BA3FB02235B09A3
:1025D4001C01D7F8FC300022C7F8D030C7F8D4204B
:1025E400D7E9348942464B469118B9645B41FB6490
:1025F400D7E91223414612EB010A494643EB010B8A
:102604004FF000024FF000034FEACB0343EA5A7342
:102614004FEACA0292469B4643461AEB0303C7F8A5
:10262400C8304B464BEB0303C7F8CC30D7F8F43033
:102634005B680022C7F8C030C7F8C420D7E930125D
:102644000B46DB183B64134642EB03037B64D7E978
:102654001023D7E93201FDF7BBFD02460B461146B4
:102664003B4BA3FB01235B09642202FB03F3CB1A5C
:10267400DB0003F13202364BA3FB02235B095B0050
:1026840003F4F8731C44D7F8FC300022C7F8B830C0
:10269400C7F8BC20D7E92E8942464B469118B96346
:1026A4005B41FB63D7E90E23414651183963494620
:1026B4004B417B634FF000024FF00003D7E90CABB2
:1026C4005946CB00514643EA51735146CA0010465D
:1026D4001946034642469B18C7F8B0304B460A4693
:1026E40042EB0303C7F8B430D7F8F4305B68002238
:1026F400C7F8A830C7F8AC20D7E92A120B46DB1874
:10270400BB62134642EB0303FB62D7E90A23D7E912
:102714002C01FDF75DFD02460B460D4BA3FB021396
:102724005B09642101FB03F3D31ADB003233084A4B
:10273400A2FB03235B0903F00702D7F8F4301B68FC
:1027440022449A6006E100BF0010014000140140D9
:102754001F85EB51D7F8FC300022C7F8A030C7F82A
:10276400A420D7E9288942464B46911839625B4137
:102774007B62D7E9082341465418494643EB0105D7
:102784004FF000024FF00003EB0043EA5473E20001
:1027940014461D464346E318C7F898304B4645EBAC
:1027A4000303C7F89C30D7F8F4305B680022C7F8FD
:1027B4009030C7F894204FF000024FF00003D7E99F
:1027C400244529468B00214643EA917321468A0019
:1027D400D7E92601FDF7FCFC02460B46604BA3FB40
:1027E40002235B091C01D7F8FC300022C7F88830AB
:1027F400C7F88C20D7E9228942464B469118B96123
:102804005B41FB61D7E906234146511839614946CA
:102814004B417B614FF000024FF00003D7E904AB5A
:102824005946CB00514643EA51735146CA001046FB
:102834001946034642469B18C7F880304B460A4661
:1028440042EB0303C7F88430D7F8F4305B68002206
:10285400BB67FA674FF000024FF00003D7E91E8907
:1028640049468B00414643EA917341468A00D7E9C1
:102874002001FDF7ADFC02460B461146384BA3FB85
:1028840001235B09642202FB03F3CB1A1B013233DD
:10289400334AA2FB03235B0903F0F0031C44D7F87B
:1028A400FC3000223B677A67D7E91C8942464B46D5
:1028B4009118B9605B41FB60D7E902234146511886
:1028C400396049464B417B604FF000024FF00003F2
:1028D400D7E900AB5946CB00514643EA5173514600
:1028E400CA0010461946034642469B18BB664B462F
:1028F4000A4642EB0303FB66D7F8F4305B68002218
:102904003B667A664FF000024FF00003D7E918895E
:1029140049468B00414643EA917341468A00D7E910
:102924001A01FDF755FC02460B460D4BA3FB02139F
:102934005B09642101FB03F3D31A1B013233084AF8
:10294400A2FB03235B0903F00F02D7F8F4301B68E2
:1029540022449A6000BF07F58077BD46BDE8B08F7A
:102964001F85EB5102440346934200D1704703F89C
:10297400011BF9E770B50D4D0D4C641BA410002626
:10298400A64209D10B4D0C4C00F018F8641BA4109E
:102994000026A64205D170BD55F8043B9847013680
:1029A400EEE755F8043B98470136F2E7F8290008AA
:1029B400F8290008F8290008FC290008F8B500BF28
:1029C400F8BC08BC9E467047F8B500BFF8BC08BC0C
:0429D4009E46704764
:1029D80000000000000000000102030406070809C7
:0829E8000000000001020304DD
:0829F00014D8FF7F0100000074
:0429F800B901000819
:0429FC009501000839
:0C2A00000024F4001000000001000000A1
:0400000508000AC520
:00000001FF
